:100000000C9473000C949B000C949B000C949B002C
:100010000C949B000C949B000C949B000C949B00F4
:100020000C949B000C949B000C949B000C949B00E4
:100030000C949B000C949B000C949B000C949B00D4
:100040000C944A080C949B000C94BA080C949408E5
:100050000C949B000C949B000C949B000C949B00B4
:100060000C949B000C949B0059035F0365036B0386
:10007000710377037D03EA04F104F804FF04060525
:100080001D050D051D0514050000000024002700B6
:100090002A0000000000250028002B0000000000BE
:1000A00023002600290004040404040404040202BA
:1000B00002020202030303030303010204081020E7
:1000C00040800102040810200102040810200000F2
:1000D0000008000201000003040700000000000007
:1000E0000000EC08030D11241FBECFEFD8E0DEBFE7
:1000F000CDBF11E0A0E0B1E0EAE9F1E202C0059075
:100100000D92AA36B107D9F722E0AAE6B1E001C004
:100110001D92AE36B207E1F710E0C2E7D0E004C0AE
:100120002197FE010E94880FC137D107C9F70E94AD
:100130003E0A0C94C0100C94000008958F929F9278
:10014000AF92BF92CF92DF92EF92FF920F931F93E5
:10015000CF93DF938B01D82FC92F20912D0230919F
:100160002E0240912F02509130020E94710D88237F
:1001700009F460C0C0903102D0903202E0903302A6
:10018000F090340246015701B7FAB094B7F8B09432
:10019000A5019401B8018D2F9C2F0E94710D87FD40
:1001A0000DC0A7019601B8018D2F9C2F0E94D00E83
:1001B000181634F06801ED2EFC2E02C075016401A2
:1001C00020E030E0A901C701B6010E94710D811144
:1001D00009C010923D0210923E0210923F0210920E
:1001E000400220C0A701960160E074E284E799E430
:1001F0000E94760D9F770E94EF0D60933D027093F1
:100200003E0280933F0290934002C1E020E030E044
:10021000A901C701B6010E94D00E18160CF0C0E06B
:10022000C0931B02C0922D02D0922E02E0922F02A8
:10023000F0923002DF91CF911F910F91FF90EF90DC
:10024000DF90CF90BF90AF909F908F9008958330B4
:1002500081F028F4813099F08230A1F00895873040
:10026000A9F08830B9F08430D1F4809180008F7D7E
:1002700003C0809180008F7780938000089584B5BB
:100280008F7702C084B58F7D84BD08958091B000C2
:100290008F7703C08091B0008F7D8093B000089568
:1002A000CF93DF93282F30E0F901E253FF4F849181
:1002B000F901E654FF4FD491F901EA55FF4FC4917B
:1002C000CC2391F081110E942701EC2FF0E0EE0F7A
:1002D000FF1FE456FF4FA591B491EC91ED2381E00F
:1002E00090E021F480E002C080E090E0DF91CF91C7
:1002F00008951F93CF93DF93282F30E0F901E25345
:10030000FF4F8491F901E654FF4FD491F901EA556A
:10031000FF4FC491CC23C9F0162F81110E942701F1
:10032000EC2FF0E0EE0FFF1FEE56FF4FA591B491BA
:100330008FB7F894111105C09C91ED2FE095E9233A
:1003400002C0EC91ED2BEC938FBFDF91CF911F9109
:100350000895CF93DF9390E0FC01E654FF4F249182
:10036000FC01EA55FF4F8491882361F190E0880FEA
:10037000991FFC01E857FF4FC591D491FC01EE563F
:10038000FF4FA591B491611109C09FB7F89488817E
:10039000209582238883EC912E230BC0623061F478
:1003A0009FB7F8943881822F809583238883EC91BE
:1003B0002E2B2C939FBF06C08FB7F894E8812E2B6D
:1003C00028838FBFDF91CF910895CF92DF92EF9274
:1003D000FF920F931F93CF93DF936C017A018B01F0
:1003E000C0E0D0E0CE15DF0589F0D8016D918D0118
:1003F000D601ED91FC910190F081E02DC6010995A7
:10040000892B11F47E0102C02196ECCFC701DF9148
:10041000CF911F910F91FF90EF90DF90CF900895B3
:10042000089580E090E00895FC01538D448D252FC0
:1004300030E0842F90E0821B930B541710F0CF967E
:10044000089501970895FC01918D828D981761F0B0
:10045000828DDF01A80FB11D5D968C91928D9F5FFB
:100460009F73928F90E008958FEF9FEF0895FC01A6
:10047000918D828D981731F0828DE80FF11D858D59
:1004800090E008958FEF9FEF0895FC01918D228DEC
:10049000892F90E0805C9F4F821B91098F73992771
:1004A00008958CE791E00E94450221E0892B09F430
:1004B00020E0822F0895FC01848DDF01A80FB11D7B
:1004C000A35ABF4F2C91848D90E001968F7399278A
:1004D000848FA689B7892C93A089B1898C91806477
:1004E0008C93938D848D981306C00288F389E02D38
:1004F00080818F7D80830895EF92FF920F931F93E9
:10050000CF93DF93EC0181E0888F9B8D8C8D9813C6
:1005100005C0E889F989808185FD24C0F62E0B8D00
:1005200010E00F5F1F4F0F731127E02E8C8DE81224
:100530000CC00FB607FCFACFE889F989808185FFE6
:10054000F5CFCE010E945B02F1CF8B8DFE01E80F4B
:10055000F11DE35AFF4FF0820B8FEA89FB898081FE
:10056000806207C0EE89FF896083E889F98980810C
:100570008064808381E090E0DF91CF911F910F91A3
:10058000FF90EF900895CF93DF93EC01888D88233F
:10059000C9F0EA89FB89808185FD05C0A889B989F0
:1005A0008C9186FD0FC00FB607FCF5CF808185FFCB
:1005B000F2CFA889B9898C9185FFEDCFCE010E9439
:1005C0005B02E7CFDF91CF91089580E090E0892B27
:1005D00029F00E94510281110C9400000895CF93DC
:1005E000DF93FC012381222359F1EC0161E0848136
:1005F0000E94A90161E08D810E94A9018B81843054
:1006000011F0883039F461E08E810E94A90161E027
:100610008F8106C0833011F0863021F461E08E8135
:100620000E94A9018FA58F3F59F061E00E94A901A6
:100630006EA581E068278FA5DF91CF910C94790199
:10064000DF91CF910895CF93DF93FC012381222383
:10065000A9F0EC010190F081E02D0480F581E02DFE
:1006600060E009958FA58F3F49F061E00E94A901E4
:100670006EA58FA5DF91CF910C947901DF91CF9179
:100680000895CF93DF934770552766277727FA01A0
:100690003197EC01A881B981E730F10520F4EC5CD9
:1006A000FF4F0C94880F1496ED91FC91159761E023
:1006B00029C01496ED91FC91159765E023C014961E
:1006C000ED91FC91159764E01DC01496ED91FC919D
:1006D000159766E017C01496ED91FC91159762E0AE
:1006E00011C01496ED91FC9115976AE00BC0149619
:1006F000ED91FC91159768E005C01496ED91FC9181
:10070000159769E0DF91CF910994CF93DF93EC01C6
:10071000CB01BA0126E030E040E050E00E94690FD2
:10072000623071058105910559F18CF461157105EF
:1007300081059105F1F06130710581059105C1F5E3
:10074000E881F9810480F581E02D65E02DC06430F9
:1007500071058105910511F1D4F0653071058105B0
:10076000910531F5E881F9810480F581E02D66E09D
:100770001BC0E881F9810480F581E02D64E014C09C
:10078000E881F9810480F581E02D61E00DC0E88108
:10079000F9810480F581E02D63E006C0E881F981EC
:1007A0000480F581E02D62E0CE01DF91CF910994C4
:1007B000DF91CF9108954370552766277727DC0195
:1007C000ED91FC910480F581E02D423051056105E9
:1007D000710571F0433051056105710559F04130E3
:1007E00051056105710511F065E005C066E003C0C3
:1007F0006AE001C069E00994CF93DF93EC01CB017B
:10080000BA0123E030E040E050E00E94690F61301F
:1008100071058105910581F06230710581059105B1
:1008200091F0672B682B692BC1F4E881F981048072
:10083000F581E02D64E00DC0E881F9810480F58147
:10084000E02D61E006C0E881F9810480F581E02DAA
:1008500062E0CE01DF91CF910994DF91CF910895AD
:100860004370552766277727DC01ED91FC910480C2
:10087000F581E02D423051056105710571F043307D
:1008800051056105710559F041305105610571054A
:1008900011F062E005C063E003C061E001C060E008
:1008A0000994CF93DF93EC01E881F9810480F5810D
:1008B000E02D8A81811102C060E001C062E0CE01BA
:1008C0000995E881F9810480F581E02D8A81811103
:1008D00002C061E001C063E0CE0109958CA59DA531
:1008E0008230910538F0880F991F880F991F05975E
:1008F0000197F1F7E881F9810480F581E02D8A8183
:10090000811102C060E001C062E0CE01DF91CF91B1
:100910000994CF93DF93EC0120E030E0A9016C89CA
:100920007D898E899F890E94D00E18161CF4E8A933
:10093000F9A902C0EAA9FBA9DF91CF910994CF924E
:10094000DF92EF92FF920F931F93CF93DF93FC01FF
:100950002381243041F0283031F0233031F026302B
:1009600021F012E003C014E001C013E0EC0128966E
:10097000E12CF12CC62ED12C01E0C6010E2C02C0B8
:10098000959587950A94E2F7688180FD6027FE01BE
:10099000349780810E947901FFEFEF1AFF0A2196B8
:1009A000E11658F3DF91CF911F910F91FF90EF90D7
:1009B000DF90CF9008950F931F93DC011396EC9175
:1009C0000E2F10E009301105C0F5F801E55CFF4F6E
:1009D0000C94880FDC01ED91FC910084F185E02DF1
:1009E00029C0DC01ED91FC910284F385E02D22C049
:1009F000DC01ED91FC910484F585E02D1BC0DC0148
:100A0000ED91FC910684F785E02D14C0DC01ED9199
:100A1000FC910088F189E02D0DC0DC01ED91FC9185
:100A20000288F389E02D06C0DC01ED91FC91048879
:100A3000F589E02D1F910F9109941F910F91089551
:100A40002F923F924F925F926F927F928F929F92DE
:100A5000AF92BF92CF92DF92EF92FF920F931F93CC
:100A6000CF93DF9300D000D0CDB7DEB71C01FC01DF
:100A7000C088D188E288F38884859585A685B78566
:100A8000C81AD90AEA0AFB0A64897589868997898E
:100A90009B01AC010E94D50E4B015C01F101648DFC
:100AA000758D868D978D9B01AC010E94050D9B0174
:100AB000AC01C501B4010E94760D0E94E80DC1147D
:100AC000D104E104F104A1F46230710581059105BE
:100AD0000CF07CC0F10114A215A216A217A2148A70
:100AE000158A168A178A14AA15AA16AA17AAFFC069
:100AF000F10104A915A926A937A91C141D041E0477
:100B00001F0404F510161106120613064CF46C159A
:100B10007D058E059F055CF52281211157C027C0F8
:100B2000011511052105310509F450C06C157D052D
:100B30008E059F050CF04AC0F1018281882309F4DB
:100B400045C039C01016110612061306FCF4002722
:100B5000112798010C191D092E093F09601771070B
:100B60008207930724F4F1012281222379F19B016A
:100B7000AC0188279927DC01821B930BA40BB50BD2
:100B8000F10184AB95ABA6ABB7AB20C00115110545
:100B900021053105D9F08824992454018C189D0829
:100BA000AE08BF08681579058A059B057CF4F1013C
:100BB000828181110BC030952095109501951F4FB2
:100BC0002F4F3F4F04AB15AB26AB37ABF10184A8D9
:100BD00095A8A6A8B7A881149104A104B10491F422
:100BE00080AD91ADA2ADB3AD84AF95AFA6AFB7AFB9
:100BF00081E01C141D041E041F040CF080E0F101B0
:100C0000828341C0F101C4ACD5ACE6ACF7ACA7011E
:100C10009601C701B6010E94050D2B013C01C501DB
:100C2000B4010E94200E20E030E040E850E40E9431
:100C3000D50E20E030E040E85FE30E94050D9B0107
:100C4000AC01C301B2010E94760D9B01AC01C7014A
:100C5000B6010E94040D7B018C01F101E05CFF4FA5
:100C600060807180C280D3809301A6010E94D00E63
:100C7000181614F073018601A701B801F10144AF01
:100C800055AF66AF77AFFFEF8F1A9F0AAF0ABF0A63
:100C9000F10184AA95AAA6AAB7AA24AD35AD46AD9E
:100CA00057ADCA01B90129833A834B835C830E9403
:100CB000EF0DF10164A375A386A397A329813A815F
:100CC0004B815C8160E074E284E799E40E94760DD8
:100CD000F101648B758B868B978B2281211107C064
:100CE000DC01CB01B058848B958BA68BB78B0F9012
:100CF0000F900F900F90DF91CF911F910F91FF9068
:100D0000EF90DF90CF90BF90AF909F908F907F90AB
:100D10006F905F904F903F902F900895FF920F93A8
:100D20001F93CF93DF93F82E062FC7E0D0E010E09B
:100D300061E0802F0E9479018F2D0E9450010C2EBE
:100D400001C0880F0A94EAF7182B60E0802F0E94F8
:100D50007901219768F7812FDF91CF911F910F9132
:100D6000FF900895CF92DF92FF920F931F93CF933E
:100D7000DF93EC018B810E945001892BD9F76A81A6
:100D80008B810E948E06082F6A818B810E948E06BD
:100D9000182F6A818B810E948E06F82EC12CD12CCF
:100DA0008C8190E0C816D90660F461E08A810E94C7
:100DB000790160E08A810E9479018FEFC81AD80A10
:100DC000EFCF302F3095612F60954F2D409537FD37
:100DD0000AC03F3751F46F3F41F421E04F3F09F023
:100DE00020E0219503C02FEF01C020E0862F90E086
:100DF000A0E0B0E0BA2FA92F982F8827A32B842B2F
:100E0000B22BBC01CD016F5F7F4F8F4F9F4FDF91A2
:100E1000CF911F910F91FF90DF90CF900895009791
:100E200069F0FC0101900020E9F73197AF01481B00
:100E3000590BBC018CE791E00C94E50180E090E057
:100E400008958F929F92AF92BF920F931F93CF936B
:100E5000DF93CDB7DEB7A1970FB6F894DEBF0FBE14
:100E6000CDBF19A2423008F44AE08E010F5D1F4F3A
:100E7000842E912CA12CB12CA50194010E94470F26
:100E8000E62FB901CA0101501109EA3014F4E05DFE
:100E900001C0E95CD801EC93232B242B252B61F7AF
:100EA000C8010E940F07A1960FB6F894DEBF0FBECF
:100EB000CDBFDF91CF911F910F91BF90AF909F90C9
:100EC0008F9008954F925F926F927F928F929F9230
:100ED000AF92BF92CF92DF92EF92FF926B017C01B3
:100EE000B42E9B01AC010E94420F882319F08CE3C1
:100EF00091E027C026013701E89477F82FEF3FEF04
:100F00004FE75FE7C301B2010E94420F81110DC09C
:100F10002FEF3FEF4FE75FE7C301B2010E94710D72
:100F200018161CF480E491E00CC02FEF3FEF4FE760
:100F30005FE4C701B6010E94D00E181684F484E461
:100F400091E0FF90EF90DF90CF90BF90AF909F9097
:100F50008F907F906F905F904F900C940F072FEFC2
:100F60003FEF4FE75FECC701B6010E94710D87FDAF
:100F7000E6CF20E030E0A901C701B6010E94710D63
:100F800087FF11C0E0917C01F0917D010190F0811B
:100F9000E02D6DE28CE791E009954C01F7FAF094B1
:100FA000F7F8F09402C0812C912CA12C60E070E045
:100FB00080E09FE3AB1441F020E030E040E251E4F8
:100FC0000E94760DA394F6CF9B01AC01C701B60138
:100FD0000E94050D2B013C010E94EF0D6B017C016D
:100FE0000E941E0E9B01AC01C301B2010E94040DC0
:100FF0002B013C014AE0C701B6010E9421077C0198
:10100000E80CF91CBB2069F0E0917C01F0917D01B6
:101010000190F081E02D6EE28CE791E00995E80EF9
:10102000F91EDB2CDD2021F120E030E040E251E42C
:10103000C301B2010E94D50E2B013C010E94EF0DAD
:101040004B01A12CB12C4AE0C501B4010E9421073B
:10105000E80EF91EC501B4010E941E0E9B01AC01F1
:10106000C301B2010E94040D2B013C01DA94DACFD6
:10107000C701FF90EF90DF90CF90BF90AF909F900F
:101080008F907F906F905F904F9008950E94BB105B
:101090000C9423101F920F920FB60F9211242F93CE
:1010A0003F938F939F93AF93BF93809178019091DB
:1010B0007901A0917A01B0917B013091770123E011
:1010C000230F2D3720F40196A11DB11D05C026E880
:1010D000230F0296A11DB11D209377018093780103
:1010E00090937901A0937A01B0937B018091730171
:1010F00090917401A0917501B09176010196A11DA6
:10110000B11D8093730190937401A0937501B09306
:101110007601BF91AF919F918F913F912F910F9049
:101120000FBE0F901F9018951F920F920FB60F923F
:1011300011242F933F934F935F936F937F938F93DC
:101140009F93AF93BF93EF93FF938CE791E00E943F
:101150005B02FF91EF91BF91AF919F918F917F9132
:101160006F915F914F913F912F910F900FBE0F9014
:101170001F9018951F920F920FB60F9211242F9364
:101180008F939F93EF93FF93E0918C01F0918D01EA
:101190008081E0919201F091930182FD12C09081D3
:1011A000809195018F5F8F7320919601821751F086
:1011B000E0919501F0E0E458FE4F958F8093950102
:1011C00001C08081FF91EF919F918F912F910F909E
:1011D0000FBE0F901F9018958F929F92AF92BF9263
:1011E000CF92DF92EF92FF92CF9310927F011092F5
:1011F0007E0188EE93E0A0E0B0E0809380019093C0
:101200008101A0938201B09383018CE091E09093DF
:101210007D0180937C0185EC90E09093890180931F
:10122000880184EC90E090938B0180938A0180EC9C
:1012300090E090938D0180938C0181EC90E09093ED
:101240008F0180938E0182EC90E0909391018093C6
:10125000900186EC90E0909393018093920110921C
:10126000950110929601109297011092980188E3CF
:1012700091E090935E0280935D0282E080935F0232
:1012800083E08093600261E082E00E94A90160E057
:10129000809160020E94A901C1E0C093610260E0F8
:1012A00080915F020E9479018DE592E00E94B20672
:1012B0008EE191E090931A0280931902C0931C0270
:1012C00010922502109226021092270210922802F4
:1012D0001092290210922A0210922B0210922C02D4
:1012E00010922D0210922E0210922F0210923002B4
:1012F000C12CD12C80E8E82E8FE3F82EC092310269
:10130000D0923202E0923302F0923402109235020F
:10131000109236021092370210923802C0923902AF
:10132000D0923A02E0923B02F0923C0210923D02CF
:1013300010923E0210923F021092400281E090E033
:1013400090934602809345028FEF8093480210925B
:10135000410210924202109243021092440289E02C
:1013600080931D0288E080931E0284E080931F0218
:1013700085E0809320021092470210924D02109255
:101380004E0210924F02109250021092510210928F
:10139000520210925302109254021092550210926F
:1013A00056021092570210925802C0925902D092DF
:1013B0005A02E0925B02F0925C0210921B021092C1
:1013C000210210922202109223021092240289E13B
:1013D00092E00E94EF028090350290903602A09039
:1013E0003702B0903802A7019601C501B4010E94EE
:1013F000710D8823C9F160914D0270914E02809168
:101400004F02909150020E94200EA50194010E946B
:10141000D50E0E94E80D60934D0270934E028093AA
:101420004F029093500286E896E6A9E6B9E48093CD
:10143000510290935202A0935302B0935402C0926F
:101440003502D0923602E0923702F092380289E1FA
:1014500092E0CF91FF90EF90DF90CF90BF90AF9050
:101460009F908F900C942005CF91FF90EF90DF908C
:10147000CF90BF90AF909F908F900895789484B54F
:10148000826084BD84B5816084BD85B5826085BD80
:1014900085B5816085BD80916E00816080936E000E
:1014A0001092810080918100826080938100809100
:1014B00081008160809381008091800081608093B1
:1014C00080008091B10084608093B1008091B00071
:1014D00081608093B00080917A00846080937A006C
:1014E00080917A00826080937A0080917A00816096
:1014F00080937A0080917A00806880937A001092BD
:10150000C10020E030E04AE754E46091310270917C
:10151000320280913302909134020E94710D88232F
:1015200009F44FC080E090E0AAE7B4E48093310270
:1015300090933202A0933302B09334028093590205
:1015400090935A02A0935B02B0935C0280914D028B
:1015500090914E02A0914F02B091500218161906B8
:101560001A061B0674F560912D0270912E0280916F
:101570002F02909130029B01AC010E94D50E6B01AD
:101580007C01609135027091360280913702909112
:1015900038029B01AC010E94050D9B01AC01C70103
:1015A000B6010E94760D0E94E80D60934D02709383
:1015B0004E0280934F029093500289E192E00E9484
:1015C000200560E070E088EC93E40E949E00E091CA
:1015D0008C01F0918D0182E08083E0918801F0918F
:1015E00089011082E0918A01F0918B018FEC808358
:1015F00010929401E0919001F091910186E0808336
:10160000E0918E01F0918F01808180618083E09173
:101610008E01F0918F01808188608083E0918E013E
:10162000F0918F01808180688083E0918E01F0913C
:101630008F0180818F7D8083CAE0C12CD12C7601FF
:101640008DE592E00E94B206C60ED71EE81EF91E76
:10165000C150B1F7C701B6012AE030E040E050E0E8
:101660000E94690FCA01B9010E94200E0E94E80D74
:1016700060936202709363028093640290936502A8
:1016800080E090E0ACE0B5E480936602909367025E
:10169000A0936802B093690280E090E0A8E4B2E40D
:1016A00080936B0190936C01A0936D01B0936E01D8
:1016B000C1E0809160020E945001892B09F01DC198
:1016C00088E491E00E940F0760915F0280916002C0
:1016D0000E948E06F82E60915F02809160020E9447
:1016E0008E06D82F60915F02809160020E948E0664
:1016F000E82EC12CD12C8091610290E0C816D90649
:1017000070F461E080915F020E94790160E0809155
:101710005F020E9479018FEFC81AD80AECCF3F2DE3
:1017200030956D2F60954E2D409537FD0AC03F379F
:1017300051F46F3F41F421E04F3F09F020E0219543
:1017400003C02FEF01C020E0862F90E0A0E0B0E0C2
:10175000BA2FA92F982F8827A32B842BB22B019661
:10176000A11DB11DC0906202D0906302E09064029E
:10177000F0906502BC01CD016C197D098E099F09AD
:101780000E94200E2091660230916702409168020B
:10179000509169020E94760D60936F017093700101
:1017A000809371019093720142E00E94620782E58A
:1017B00091E00E940F0720916B0130916C014091E4
:1017C0006D0150916E0160916F0170917001809177
:1017D0007101909172010E94040D6B017C0120E067
:1017E00030E0A9010E94D00E18165CF420E030E031
:1017F00040E251E4C701B6010E94710D87FF12C09B
:101800000AC020E030E040E251ECC701B6010E947E
:10181000D00E18163CF4C0936A018AE591E00E944C
:101820000F0767C010926A0120E030E0A901C701EC
:10183000B6010E94D00E18161CF06FEF7FEF02C0A9
:1018400061E070E07093010160930001072E000CCD
:10185000880B990B0E94200E4B015C0120E030E0C8
:10186000A901C701B6010E94D00E181624F0C701C5
:10187000B601905802C0C701B60120E030E048EC44
:1018800053E40E94050D9B01AC01C501B4010E9407
:10189000D50E0E949E0084E691E00E940F076091A1
:1018A000000170910101072E000C880B990B0E941A
:1018B000200E4B015C0120E030E0A901C701B60118
:1018C0000E94D00E181624F0C701B601905802C02D
:1018D000C701B60120E030E048EC53E40E94050D5A
:1018E0009B01AC01C501B4010E94D50E42E00E94EB
:1018F000620781E691E00E940F0780916A018823C8
:1019000031F060E070E0CB010E949E0079C08091D0
:101910003D0290913E02A0913F02B0914002892B7E
:101920008A2B8B2B09F46CC03FB7F894809173011C
:1019300090917401A0917501B091760126B5A89B94
:1019400005C02F3F19F00196A11DB11D3FBFCC244A
:10195000D82EE92EFA2EC20ED11CE11CF11C42E059
:10196000CC0CDD1CEE1CFF1C4A95D1F78091410286
:1019700090914202A0914302B0914402B701A601A6
:10198000481B590B6A0B7B0B80913D0290913E02E4
:10199000A0913F02B0914002481759076A077B07A0
:1019A00078F120911B028091250290912602A0914E
:1019B0002702B0912802222321F00196A11DB11D1A
:1019C00003C00197A109B1098093250290932602D3
:1019D000A0932702B093280240912502509126023D
:1019E000609127027091280289E192E00E94DB0455
:1019F000C0924102D0924202E0924302F09244022D
:101A00000E94E50256CE08955058BB27AA270E948F
:101A10001C0D0C94960E0E94880E38F00E948F0EBA
:101A200020F039F49F3F19F426F40C94850E0EF43F
:101A3000E095E7FB0C947F0EE92F0E94A70E58F368
:101A4000BA17620773078407950720F079F4A6F5A3
:101A50000C94C90E0EF4E0950B2EBA2FA02D0B019D
:101A6000B90190010C01CA01A0011124FF27591BE3
:101A700099F0593F50F4503E68F11A16F040A22FE9
:101A8000232F342F4427585FF3CF4695379527955A
:101A9000A795F0405395C9F77EF41F16BA0B620B59
:101AA000730B840BBAF09150A1F0FF0FBB1F661FA0
:101AB000771F881FC2F70EC0BA0F621F731F841FE3
:101AC00048F4879577956795B795F7959E3F08F009
:101AD000B0CF9395880F08F09927EE0F97958795CB
:101AE00008950E945B0E08F481E008950E948A0D1B
:101AF0000C94960E0E948F0E58F00E94880E40F0B3
:101B000029F45F3F29F00C947F0E51110C94CA0EFA
:101B10000C94850E0E94A70E68F39923B1F3552308
:101B200091F3951B550BBB27AA27621773078407F0
:101B300038F09F5F5F4F220F331F441FAA1FA9F386
:101B400035D00E2E3AF0E0E832D091505040E69574
:101B5000001CCAF72BD0FE2F29D0660F771F881FD5
:101B6000BB1F261737074807AB07B0E809F0BB0BC8
:101B7000802DBF01FF2793585F4F3AF09E3F5105DC
:101B800078F00C947F0E0C94CA0E5F3FE4F3983EFD
:101B9000D4F3869577956795B795F7959F5FC9F7C5
:101BA000880F911D9695879597F90895E1E0660F46
:101BB000771F881FBB1F621773078407BA0720F0BF
:101BC000621B730B840BBA0BEE1F88F7E095089528
:101BD0000E94EF0D6894B1110C94CA0E08950E94F2
:101BE000AF0E88F09F5798F0B92F9927B751B0F0F2
:101BF000E1F0660F771F881F991F1AF0BA95C9F791
:101C000014C0B13091F00E94C90EB1E008950C9457
:101C1000C90E672F782F8827B85F39F0B93FCCF30A
:101C2000869577956795B395D9F73EF4909580950D
:101C3000709561957F4F8F4F9F4F0895E89409C02D
:101C400097FB3EF490958095709561957F4F8F4FEF
:101C50009F4F9923A9F0F92F96E9BB279395F69505
:101C6000879577956795B795F111F8CFFAF4BB0F83
:101C700011F460FF1BC06F5F7F4F8F4F9F4F16C0E7
:101C8000882311F096E911C0772321F09EE8872F71
:101C9000762F05C0662371F096E8862F70E060E02D
:101CA0002AF09A95660F771F881FDAF7880F9695A6
:101CB000879597F90895990F0008550FAA0BE0E84A
:101CC000FEEF16161706E807F907C0F012161306FE
:101CD000E407F50798F0621B730B840B950B39F43E
:101CE0000A2661F0232B242B252B21F408950A26A4
:101CF00009F4A140A6958FEF811D811D089597F9E4
:101D00009F6780E870E060E008959FEF80EC0895A1
:101D100000240A94161617061806090608950024CA
:101D20000A9412161306140605060895092E039444
:101D3000000C11F4882352F0BB0F40F4BF2B11F4B8
:101D400060FF04C06F5F7F4F8F4F9F4F089557FD17
:101D50009058440F551F59F05F3F71F04795880F19
:101D600097FB991F61F09F3F79F0879508951216B0
:101D700013061406551FF2CF4695F1DF08C016165C
:101D800017061806991FF1CF86957105610508940D
:101D90000895E894BB2766277727CB0197F9089524
:101DA0000E945B0E08F48FEF08950E94E80E0C94D9
:101DB000960E0E94880E38F00E948F0E20F0952318
:101DC00011F00C947F0E0C94850E11240C94CA0E05
:101DD0000E94A70E70F3959FC1F3950F50E0551F19
:101DE000629FF001729FBB27F00DB11D639FAA2770
:101DF000F00DB11DAA1F649F6627B00DA11D661FBF
:101E0000829F2227B00DA11D621F739FB00DA11DDF
:101E1000621F839FA00D611D221F749F3327A00D99
:101E2000611D231F849F600D211D822F762F6A2F35
:101E300011249F5750409AF0F1F088234AF0EE0F9A
:101E4000FF1FBB1F661F771F881F91505040A9F7C7
:101E50009E3F510580F00C947F0E0C94CA0E5F3F9C
:101E6000E4F3983ED4F3869577956795B795F79503
:101E7000E7959F5FC1F7FE2B880F911D969587957B
:101E800097F908950E945B0E880B990B0895A1E2C3
:101E90001A2EAA1BBB1BFD010DC0AA1FBB1FEE1FE4
:101EA000FF1FA217B307E407F50720F0A21BB30B2F
:101EB000E40BF50B661F771F881F991F1A9469F7AB
:101EC00060957095809590959B01AC01BD01CF0107
:101ED0000895052E97FB1EF400940E94800F57FD75
:101EE00007D00E94470F07FC03D04EF40C94800FDC
:101EF00050954095309521953F4F4F4F5F4F089536
:101F000090958095709561957F4F8F4F9F4F089565
:101F1000EE0FFF1F0590F491E02D0994CF93DF930E
:101F20008230910510F482E090E0E0916C02F09133
:101F30006D0220E030E0C0E0D0E0309711F1408148
:101F4000518148175907C0F04817590761F4828139
:101F50009381209719F09B838A832BC090936D0205
:101F600080936C0226C02115310519F042175307E2
:101F700018F49A01BE01DF01EF010280F381E02D28
:101F8000DCCF2115310509F1281B390B243031052F
:101F900090F412968D919C9113976115710521F023
:101FA000FB019383828304C090936D0280936C0243
:101FB000FD01329644C0FD01E20FF31F819391931E
:101FC000225031092D933C933AC020916A023091FE
:101FD0006B02232B41F420910401309105013093D1
:101FE0006B0220936A0220910201309103012115B6
:101FF000310541F42DB73EB74091060150910701DC
:10200000241B350BE0916A02F0916B02E217F30793
:10201000A0F42E1B3F0B2817390778F0AC014E5F58
:102020005F4F2417350748F04E0F5F1F50936B0228
:1020300040936A028193919302C0E0E0F0E0CF0107
:10204000DF91CF9108950F931F93CF93DF93009764
:1020500009F48CC0FC0132971382128200916C0249
:1020600010916D020115110581F420813181820FDB
:10207000931F20916A0230916B022817390779F576
:10208000F0936B02E0936A0271C0D80140E050E027
:10209000AE17BF0750F412962D913C911397AD01E6
:1020A0002115310509F1D901F3CF9D01DA013383FF
:1020B000228360817181860F971F8217930769F4CD
:1020C000EC0128813981260F371F2E5F3F4F318366
:1020D00020838A819B8193838283452B29F4F0930B
:1020E0006D02E0936C0242C01396FC93EE9312973C
:1020F000ED01499159919E01240F351FE217F30715
:1021000071F480819181840F951F029611969C93A2
:102110008E938281938113969C938E931297E0E025
:10212000F0E0D80112968D919C911397009719F0C9
:10213000F8018C01F6CF8D919C9198012E5F3F4F55
:10214000820F931F20916A0230916B022817390782
:1021500069F4309729F410926D0210926C0202C05B
:102160001382128210936B0200936A02DF91CF9167
:102170001F910F91089581E090E0F8940C94C010A5
:1021800010E0C2E7D0E004C0FE010E94880F219653
:0A219000C337D107C9F7F894FFCF59
:10219A00010000006E028000000000007C02E501E0
:1021AA001402C3024502230237020000000023037F
:1021BA00EF029F04DB04890451043004FC03DB03AF
:1021CA0085034103000000009D0048086E616E000F
:1021DA00696E66006F76660054656E73696F6E3A53
:1021EA002000206772616D732E0053746F70212076
:0A21FA00000D0A0052504D3A20007B
:00000001FF
